{
  "_format": "hh-sol-artifact-1",
  "contractName": "Memento",
  "sourceName": "contracts/Memento.sol",
  "abi": [
    {
      "anonymous": false,
      "inputs": [
        {
          "indexed": true,
          "internalType": "address",
          "name": "sender",
          "type": "address"
        },
        {
          "indexed": false,
          "internalType": "uint256",
          "name": "id",
          "type": "uint256"
        }
      ],
      "name": "MementoCreated",
      "type": "event"
    },
    {
      "inputs": [
        {
          "internalType": "uint256",
          "name": "id",
          "type": "uint256"
        },
        {
          "internalType": "string",
          "name": "mementoCid",
          "type": "string"
        },
        {
          "internalType": "uint256",
          "name": "expirationDate",
          "type": "uint256"
        }
      ],
      "name": "create",
      "outputs": [],
      "stateMutability": "payable",
      "type": "function"
    },
    {
      "inputs": [
        {
          "internalType": "uint256",
          "name": "id",
          "type": "uint256"
        }
      ],
      "name": "getMemento",
      "outputs": [
        {
          "components": [
            {
              "internalType": "address",
              "name": "sender",
              "type": "address"
            },
            {
              "internalType": "string",
              "name": "mementoCid",
              "type": "string"
            },
            {
              "internalType": "uint256",
              "name": "expirationDate",
              "type": "uint256"
            },
            {
              "internalType": "uint256",
              "name": "stake",
              "type": "uint256"
            }
          ],
          "internalType": "struct Memento.Box",
          "name": "",
          "type": "tuple"
        }
      ],
      "stateMutability": "view",
      "type": "function"
    }
  ],
  "bytecode": "0x608060405234801561001057600080fd5b50610b95806100206000396000f3fe6080604052600436106100295760003560e01c806312639c661461002e578063bfe835471461006b575b600080fd5b34801561003a57600080fd5b5061005560048036038101906100509190610438565b610087565b60405161006291906105a8565b60405180910390f35b610085600480360381019061008091906106ff565b6101af565b005b61008f6103b0565b6000808381526020019081526020016000206040518060800160405290816000820160009054906101000a900473ffffffffffffffffffffffffffffffffffffffff1673ffffffffffffffffffffffffffffffffffffffff1673ffffffffffffffffffffffffffffffffffffffff1681526020016001820180546101129061079d565b80601f016020809104026020016040519081016040528092919081815260200182805461013e9061079d565b801561018b5780601f106101605761010080835404028352916020019161018b565b820191906000526020600020905b81548152906001019060200180831161016e57829003601f168201915b50505050508152602001600282015481526020016003820154815250509050919050565b600073ffffffffffffffffffffffffffffffffffffffff1660008085815260200190815260200160002060000160009054906101000a900473ffffffffffffffffffffffffffffffffffffffff1673ffffffffffffffffffffffffffffffffffffffff1614610253576040517f08c379a000000000000000000000000000000000000000000000000000000000815260040161024a9061082b565b60405180910390fd5b60003411610296576040517f08c379a000000000000000000000000000000000000000000000000000000000815260040161028d90610897565b60405180910390fd5b600060405180608001604052803373ffffffffffffffffffffffffffffffffffffffff1681526020018481526020018381526020013481525090508060008086815260200190815260200160002060008201518160000160006101000a81548173ffffffffffffffffffffffffffffffffffffffff021916908373ffffffffffffffffffffffffffffffffffffffff16021790555060208201518160010190816103409190610a63565b506040820151816002015560608201518160030155905050806000015173ffffffffffffffffffffffffffffffffffffffff167f4f3fcdb689e7ee0ea8bae1eef6b98b969f9a2fa9d8b96d76c0b10c6c84228146856040516103a29190610b44565b60405180910390a250505050565b6040518060800160405280600073ffffffffffffffffffffffffffffffffffffffff1681526020016060815260200160008152602001600081525090565b6000604051905090565b600080fd5b600080fd5b6000819050919050565b61041581610402565b811461042057600080fd5b50565b6000813590506104328161040c565b92915050565b60006020828403121561044e5761044d6103f8565b5b600061045c84828501610423565b91505092915050565b600073ffffffffffffffffffffffffffffffffffffffff82169050919050565b600061049082610465565b9050919050565b6104a081610485565b82525050565b600081519050919050565b600082825260208201905092915050565b60005b838110156104e05780820151818401526020810190506104c5565b60008484015250505050565b6000601f19601f8301169050919050565b6000610508826104a6565b61051281856104b1565b93506105228185602086016104c2565b61052b816104ec565b840191505092915050565b61053f81610402565b82525050565b600060808301600083015161055d6000860182610497565b506020830151848203602086015261057582826104fd565b915050604083015161058a6040860182610536565b50606083015161059d6060860182610536565b508091505092915050565b600060208201905081810360008301526105c28184610545565b905092915050565b600080fd5b600080fd5b7f4e487b7100000000000000000000000000000000000000000000000000000000600052604160045260246000fd5b61060c826104ec565b810181811067ffffffffffffffff8211171561062b5761062a6105d4565b5b80604052505050565b600061063e6103ee565b905061064a8282610603565b919050565b600067ffffffffffffffff82111561066a576106696105d4565b5b610673826104ec565b9050602081019050919050565b82818337600083830152505050565b60006106a261069d8461064f565b610634565b9050828152602081018484840111156106be576106bd6105cf565b5b6106c9848285610680565b509392505050565b600082601f8301126106e6576106e56105ca565b5b81356106f684826020860161068f565b91505092915050565b600080600060608486031215610718576107176103f8565b5b600061072686828701610423565b935050602084013567ffffffffffffffff811115610747576107466103fd565b5b610753868287016106d1565b925050604061076486828701610423565b9150509250925092565b7f4e487b7100000000000000000000000000000000000000000000000000000000600052602260045260246000fd5b600060028204905060018216806107b557607f821691505b6020821081036107c8576107c761076e565b5b50919050565b600082825260208201905092915050565b7f4d656d656d656e746f20616c7265616479206578697374732121000000000000600082015250565b6000610815601a836107ce565b9150610820826107df565b602082019050919050565b6000602082019050818103600083015261084481610808565b9050919050565b7f5374616b65206e6f742073657400000000000000000000000000000000000000600082015250565b6000610881600d836107ce565b915061088c8261084b565b602082019050919050565b600060208201905081810360008301526108b081610874565b9050919050565b60008190508160005260206000209050919050565b60006020601f8301049050919050565b600082821b905092915050565b6000600883026109197fffffffffffffffffffffffffffffffffffffffffffffffffffffffffffffffff826108dc565b61092386836108dc565b95508019841693508086168417925050509392505050565b6000819050919050565b600061096061095b61095684610402565b61093b565b610402565b9050919050565b6000819050919050565b61097a83610945565b61098e61098682610967565b8484546108e9565b825550505050565b600090565b6109a3610996565b6109ae818484610971565b505050565b5b818110156109d2576109c760008261099b565b6001810190506109b4565b5050565b601f821115610a17576109e8816108b7565b6109f1846108cc565b81016020851015610a00578190505b610a14610a0c856108cc565b8301826109b3565b50505b505050565b600082821c905092915050565b6000610a3a60001984600802610a1c565b1980831691505092915050565b6000610a538383610a29565b9150826002028217905092915050565b610a6c826104a6565b67ffffffffffffffff811115610a8557610a846105d4565b5b610a8f825461079d565b610a9a8282856109d6565b600060209050601f831160018114610acd5760008415610abb578287015190505b610ac58582610a47565b865550610b2d565b601f198416610adb866108b7565b60005b82811015610b0357848901518255600182019150602085019450602081019050610ade565b86831015610b205784890151610b1c601f891682610a29565b8355505b6001600288020188555050505b505050505050565b610b3e81610402565b82525050565b6000602082019050610b596000830184610b35565b9291505056fea2646970667358221220fd60d78683e94ba356239806551d8887bff0b7e177e75c104b19e2920bb32b5264736f6c63430008130033",
  "linkReferences": {},
  "deployedLinkReferences": {}
}